:020000040800F2
:10000000E0420120210200084D240008CB20000816
:100010004B24000895050008792A0008000000001C
:100020000000000000000000000000003D25000866
:100030006D060008000000004F2400083F2500085E
:100040003B0200083B0200083B0200083B0200089C
:100050003B0200083B0200083B0200083B0200088C
:100060003B0200083B0200083B0200083B0200087C
:100070003B0200083B0200083B0200083B0200086C
:100080003B0200083B0200083B0200083B0200085C
:100090003B0200083B0200083B0200083B0200084C
:1000A0003B0200083B0200083B0200083B0200083C
:1000B0003B0200083B0200083B0200083B0200082C
:1000C0003B0200083B0200083B0200083B0200081C
:1000D0003B020008D92900083B0200083B02000847
:1000E0003B0200083B0200083B0200083B020008FC
:1000F0003B0200083B0200083B0200083B020008EC
:100100003B0200083B0200083B0200083B020008DB
:100110003B0200083B0200083B0200083B020008CB
:100120003B0200083B020008B10500083B02000842
:100130003B02000800000000000000003B02000835
:100140003B0200083B0200083B0200083B0200089B
:100150003B0200083B020008BD0500083B02000806
:100160003B0200083B0200083B0200083B0200087B
:100170003B0200083B0200080000000000000000F5
:100180003B02000800F002F800F03AF80AA090E8FC
:10019000000C82448344AAF10107DA4501D100F042
:1001A0002FF8AFF2090EBAE80F0013F0010F18BFD5
:1001B000FB1A43F001031847D0380000F038000064
:1001C000103A24BF78C878C1FAD8520724BF30C883
:1001D00030C144BF04680C60704700000023002455
:1001E00000250026103A28BF78C1FBD8520728BF47
:1001F00030C148BF0B6070471FB51FBD10B510BDA3
:1002000000F068F91146FFF7F7FF02F071FC00F00B
:1002100086F903B4FFF7F2FF03BC00F08DF900008C
:100220000948804709480047FEE7FEE7FEE7FEE78A
:10023000FEE7FEE7FEE7FEE7FEE7FEE704480549C6
:10024000054A064B70470000AB25000885010008F1
:10025000E03C0120E0420120E03E0120E03E0120A0
:1002600053EA020C00F069802DE9F04B4FF00006D4
:10027000002B1FBFB3FA83F503FA05F424FA05F641
:100280005E4012BF1643B2FA82F502FA05F4C5F1D8
:1002900020051EBF22FA05FC44EA0C04203556EA6C
:1002A000044C4FEA144418BF641C4FF000084FF090
:1002B0000009904271EB030C39D3002919BFB1FA40
:1002C00081F701FA07F6B0FA80F700FA07F6C7F1EE
:1002D00020071EBF20FA07FC46EA0C062037B6FBB3
:1002E000F4FCA7EB0507103F07F01F0BCBF120062E
:1002F0000CFA0BFB2CFA06F644BFB3460026202F5F
:10030000A4BF5E464FF0000B5BEA060C08BF4FF03F
:10031000010B19EB0B09ABFB027C48EB0608C01B79
:1003200006FB02CC0BFB03CC71EB0C01C1E70B46C7
:10033000024641464846BDE8F08B13B54FF0000039
:100340004FF00001AFF30080BDE81C407047032A66
:1003500040F2308010F0030C00F0158011F8013BE2
:10036000BCF1020F624498BF11F801CB00F8013BC9
:1003700038BF11F8013BA2F1040298BF00F801CB8D
:1003800038BF00F8013B11F0030300F07180083A18
:10039000C0F0088051F8043B083A51F804CBA0E8BB
:1003A0000810F5E7121D5CBF51F8043B40F8043B10
:1003B000AFF30080D20724BF11F8013B11F801CB45
:1003C00048BF11F8012B24BF00F8013B00F801CB16
:1003D00048BF00F8012B70474FF000020429C0F01D
:1003E000128010F0030C00F01B80CCF1040CBCF167
:1003F000020F18BF00F8012BA8BF20F8022BA1EBB9
:100400000C0100F00DB85FEAC17C24BF00F8012B9D
:1004100000F8012B48BF00F8012B70474FF0000295
:1004200000B5134694469646203922BFA0E80C50EA
:10043000A0E80C50B1F12001BFF4F7AF090728BFC5
:10044000A0E80C5048BF0CC05DF804EB890028BF41
:1004500040F8042B08BF704748BF20F8022B11F06A
:10046000804F18BF00F8012B7047704770477047E6
:1004700010B5203AC0F00B80B1E81850203AA0E83F
:100480001850B1E81850A0E81850BFF4F5AF5FEA73
:10049000027C24BFB1E81850A0E8185044BF18C926
:1004A00018C0BDE810405FEA827C24BF51F8043BCD
:1004B00040F8043B08BF7047D20728BF31F8023B21
:1004C00048BF11F8012B28BF20F8023B48BF00F8B5
:1004D000012B7047754600F02BF8AE4605006946C3
:1004E000534620F00700854618B020B5FFF7A6FE5A
:1004F000BDE820404FF000064FF000074FF0000825
:100500004FF0000B21F00701AC46ACE8C009ACE8A5
:10051000C009ACE8C009ACE8C0098D46704710B509
:100520000446AFF300802046BDE81040FFF771BEDF
:1005300000487047803C012001491820ABBEFEE70F
:10054000260002007047000011B50D4C81B0012259
:100550001021204600F078FD0A2002F0AFFB0022B7
:100560001021204600F070FD4FF0FF300090012375
:10057000044A01A9044801F038FA024800881CBD69
:100580000000024002000020703A01204FF40050A9
:10059000FFF7DABFFEE700000020044902460A54D4
:1005A000401CC0B20D28FAD370470000B0BC002038
:1005B000014800F093BA0000203C0120014800F0FF
:1005C0008DBA0000C03B012001681823CAB2103A5E
:1005D000B2FBF3F2054B6FF30901032A9B5CC36581
:1005E00000D9091D8165084670470000663A000879
:1005F00010B5014600208B698A6A4FF0C07453B170
:10060000B3F5005F15D072B1012A0CD0022A0AD0CE
:10061000032A09D104E01AB1012A06D0022A03D123
:10062000C96AC90100D5012010BDC96AA142FAD02A
:1006300010BD002AF7D0012AF2D0022AF3D0032AF3
:10064000F3D010BD30B50468256825F480252560F9
:10065000046863608368402B036803D09960006876
:10066000C26030BD9A600068C16030BD704772B62C
:10067000FEE700002DE9F05F9146734A0E460746FB
:10068000704910889846AB230B54401C80B29346A7
:100690000F54401C10806D480025D0E9004027E031
:1006A0006B4850F82500824603F05EF8044603F0DC
:1006B00077F8514603F058F9664903F089F803F0DA
:1006C00053F86049BBF800204FEA142C01F802C02F
:1006D000521C92B24FEA102C8C54521C92B201F868
:1006E00002C0521C92B28854521CABF800206D1C00
:1006F000BD42D5DB55490025C1E900405149BBF851
:1007000000208A468E54521CABF8002028E0504846
:100710003C3050F82570384603F026F8044603F0C4
:100720003FF8394603F020F94A4903F051F803F045
:100730001BF8BBF80020270A51460AF80270521C29
:1007400092B2070A0AF80240521C92B20AF80270EA
:10075000521C92B20AF80200521CABF800206D1C29
:10076000B542D4DB394E0025C6E90040BBF8002075
:1007700001F80290521CABF80020D34626E0344822
:10078000783050F82570384602F0EEFF044603F04A
:1007900007F8394603F0E8F82E4903F019F802F09B
:1007A000E3FF294B270A1A880BF80270521C92B2F9
:1007B000070A0BF80240521C92B20BF80270521C4E
:1007C00092B20BF80200521C1A806D1C4D45D6DB0C
:1007D000C6E90040DFF87090B2460026B9F8001074
:1007E0005D460BF80180491CA9F8001023E0184869
:1007F000B43050F82670384602F0B6FF044602F0D6
:10080000CFFF394603F0B0F8124902F0E1FF02F0E1
:10081000ABFFB9F80010230A6B54491C89B2030AD4
:100820006C54491C89B26B54491C89B26854491CE8
:10083000A9F80010761C4645D9DBCAE90040BDE89E
:10084000F09F000026BD00201E00002010000020A8
:10085000C0BB002000007A442DE9F04F8B46099977
:1008600064245143634301EB8101B3EB410F43DC4B
:10087000531E01214FF0000A9946012B3CDD1F4E0B
:1008800008E000BFBAF10F0F36D2B1F11E0301D458
:100890001D4600E0002501F11E07974201D8B84629
:1008A00000E090463346344606E000BF50F825C0CD
:1008B0009C4500DD63466D1C8D42F7DB4D1C05E059
:1008C00050F825C0A44500DD64466D1C4545F7DBA6
:1008D00050F821509D420BDBA54209DBB5F54D7F59
:1008E00006DD2BF81A100AF10103B9B21FFA83FAD8
:1008F000491C89B24945C5DBBDE8F08F0100FFFF07
:100900002DE9F74F8AB006461746202101A8FFF7C8
:1009100085FD3C210B98FFF781FD318800230846B7
:1009200009E000BF36F813208A4200DD11468242FA
:1009300000DA10465B1CBB42F4DB00230D1A19469B
:10094000344A06E036F81140241A42F82140234484
:10095000491CB942F6DB3A4601A92E480095FFF73B
:100960007BFF002501A830F81500E8B3B0F11E01A7
:1009700001D40C4600E000241E30B84200D33846B3
:100980004FF0000A8046D14630E0234800EB840057
:10099000408802F09DFB214A214B02F0ADFB8346CB
:1009A0001D48009130F8240002F092FB5A46009B4B
:1009B00002F0E6FA8346099136F81400009002F03E
:1009C00087FB5A46099B02F097FB834650460991E4
:1009D00002F07AFD5A46099B02F0D2FA02F09EFA22
:1009E00082460098814400E010E0641C4445CCDD60
:1009F000484602F0D5FE0146504602F0F3FD0B9941
:100A000041F825006D1CEDB20F2DABD30DB028467B
:100A1000BDE8F08F407D002000000308FCA9F1D262
:100A20004D62503F2DE9F0410446876D00F012FB06
:100A3000064694F835000025022806D0802060651F
:100A400084F834500120BDE8F0812068016821F06D
:100A5000160101602068416921F080014161206C2C
:100A600008B9A06C20B12068016821F0080101607C
:100A70002068016821F0010101600CE000F0EAFA51
:100A8000801B052807D920206065032084F83500E5
:100A900084F83450D7E720680068C007EED194F896
:100AA0005C103F208840B860012084F8350084F84D
:100AB00034500020C7E790F83510022903D0802178
:100AC000416501207047052180F8351000680168F4
:100AD00021F0010101600020704700002DE9F8437A
:100AE00004464FF00009CDF8009063484FF41651CA
:100AF000A56D0068B0FBF1F72E6894F85C10082033
:100B000000FA01F131420FD021680A6852070BD573
:100B10000A6822F004020A6094F85C108840A86019
:100B2000606D40F00100606594F85C104FF00108C2
:100B300008FA01F0304208D021684969090604D555
:100B4000A860606D40F00200606594F85C100420BD
:100B50008840304208D021680968890704D5A86018
:100B6000606D40F00400606594F85C1010208840CF
:100B7000304218D021680968090714D5A860206898
:100B80000168490304D50068000308D5A16C07E09B
:100B90000168C90503D4016821F008010160216CD6
:100BA00009B12046884794F85C10202088403042E4
:100BB00031D021680968C9062DD5A86094F83500A0
:100BC00005282068016806D0490347D5006800035E
:100BD0001DD4616C1CE021F01601016020684169A0
:100BE00021F080014161206C08B9A06C20B120681F
:100BF000016821F00801016094F85C103F208840F2
:100C0000A86084F8358084F83490216D1FE0E16B92
:100C100009B120468847606D00282BD0606DC00761
:100C200014D0052084F835002068016821F0010106
:100C300001600098401C0090B84203D8206800680A
:100C4000C007F6D184F8358084F83490E16C00292F
:100C500010D001B02046BDE8F04308470168C9053F
:100C6000D5D4016821F01001016084F8358084F842
:100C70003490CCE7BDE8F883300000202DE9F04146
:100C8000044600F0E7F906465CB1022084F835001E
:100C9000002584F834502068016821F001010160CA
:100CA0000DE00120BDE8F08100F0D4F9801B05289B
:100CB00005D920206065032084F83500F2E720681C
:100CC0000068C007F0D12268116820480140D4E9CB
:100CD00001031843D4E903363343184363691843C7
:100CE000A3691843E3691843236A18430843616AF8
:100CF000042903D1D4E90B13194308431060206879
:100D00004069666A20F0070130460E430127042837
:100D10000CD1A06A0643E06A40B12046FFF768FCA8
:100D200020B14020606584F83570BAE720684661DC
:100D30002046FFF749FC94F85C203F2191408160F8
:100D4000656584F835700020ACE700003F8010F046
:100D50002DE9F0410446866D90F834000025012805
:100D60000DD0012084F8340094F835700020012F54
:100D700007D084F8340002252846BDE8F08102201F
:100D8000FBE7022784F8357060652046FFF75AFCC0
:100D900094F85C103F208840B0602068016841F002
:100DA00016010160206C20B12068016841F0080143
:100DB00001602068016841F001010160DCE700008A
:100DC0002DE9F04FDFF85092002301260325A9F109
:100DD000040B85B00F2709F1040AABF1040E12E1F0
:100DE000224606FA03F422407ED091F804C00CF0AB
:100DF000030CBCF1010F02D0BCF1020F26D1D0F8D8
:100E00000880CDF800804FEA430805FA08FCCDF8C9
:100E10001080DDF8008028EA0C08CDF80080D1F8B9
:100E20000CC0DDF810800CFA08FCDDF800804CEAFC
:100E3000080CC0F808C0D0F804C02CEA040C0C79E7
:100E4000C4F300149C4044EA0C0444600C79E4436D
:100E5000A40712D0C4684FEA430CCDF808C005FAC5
:100E60000CFC24EA0C04D1F80880DDF808C008FA6C
:100E70000CF848EA0408C0F80C800C7904F003046C
:100E8000022C16D1DC0800EB840CCDF808C0DCF88D
:100E900020C05C074FEAD46807FA08F42CEA040C77
:100EA0000C6904FA08F444EA0C04DDF808C0CCF834
:100EB000204004684FEA430805FA08FC24EA0C04C1
:100EC00091F804C00CF0030C0CFA08FC4CEA040C7A
:100ED000C0F800C04C6814F4403F05D04F4CD4F823
:100EE00000C04CF4804C00E08CE0C4F800C02468E2
:100EF00023F0030C04F480440094494C64440294AD
:100F0000D4F808484FEA837C4FEA1C7807FA08FCBB
:100F100024EA0C04DFF80CC1604502D14FF0000C4C
:100F200039E0DFF804C1604502D14FF0010C32E036
:100F3000DFF8F8C0604502D14FF0020C2BE0DFF87B
:100F4000F0C0604502D14FF0030C24E0DFF8E4C0AC
:100F5000604502D14FF0040C1DE0DFF8DCC06045B5
:100F600002D14FF0050C16E0DFF8D0C0604502D189
:100F70004FF0060C0FE0DFF8C8C0604502D14FF01B
:100F8000070C08E0DFF8BCC0604502D14FF0080C48
:100F900001E04FF0090C0CFA08FC4CEA040C029C2E
:100FA000C4F808C8D9F80040CC46D1F8048094436E
:100FB0005FEAC82800D51443CCF80040DAF80040B6
:100FC000D446D1F8048094435FEA882800D51443BE
:100FD000CCF80040DBF80040DC46D1F804809443B4
:100FE0005FEA883800D51443CCF80040DEF80040B2
:100FF000F446D1F8048094435FEAC83800D514431E
:10100000CCF800405B1C0A681446DA407FF4E8AE76
:1010100005B0BDE8F08F0000083C014044380240B4
:10102000003001400000024000040240000802407D
:10103000000C024000100240001402400018024060
:10104000001C0240002002400AB18161704709047F
:10105000FBE7000001488068704700002400002082
:1010600002488168027811448160704724000020A2
:101070000B4810B5016841F400710160016841F44A
:1010800080610160016841F480710160032000F01B
:1010900071F8032000F006F800F024F8002010BDDD
:1010A000003C024070B50D4D04464FF47A7128782B
:1010B000B1FBF0F00A490968B1FBF0F000F08DFDDA
:1010C00048B9102C07D200222146501E00F032F8F9
:1010D00000206C6070BD012070BD00002400002065
:1010E000300000200B4882B0016841F4804101606B
:1010F000006800F4804000900648001F016841F03D
:1011000080510160006800F080500090052002B01E
:1011100000F030B844380240002809DB00F01F021C
:10112000012191404009800000F1E020C0F8001149
:1011300070470000F0B40E4B1B680C46C3F302234B
:10114000C3F10705042D00D90425191D072901D273
:10115000002300E0DB1E012606FA05F1491E2140AE
:1011600099409E40761E16403143F0BC01F085BC8C
:101170000CED00E0064900F0070208684FF6FF0397
:10118000184040EA0220034A1043086070470000FC
:101190000CED00E00000FA052DE9F0470E460500D1
:1011A00063D0DFF81C81D8F80000F7B200F00F0020
:1011B000B04207D288F80070D8F8000000F00F00A5
:1011C000B04252D128683F4C810712D5400703D561
:1011D000206840F4E05020602878000703D520689C
:1011E00040F4604020602068A96820F0F0000843C7
:1011F00020602878C0072BD0324968680839012858
:1012000010D00968022810D0890700292DDA21683A
:1012100021F0030101432160FFF71CFF814641F2E9
:10122000883A0EE009688903EFE78901EDE700BF1E
:10123000FFF710FFA0EB0901514502D90320BDE8DB
:10124000F0872068696800F00C00B0EB810FEFD1E7
:10125000D8F80010404601F00F01B14207D90770DD
:10126000006800F00F00B04201D00120E7E72878C5
:10127000400705D52068E96820F4E0500843206065
:101280002878000706D52068296920F4604040EAE4
:10129000C100206000F04EF82168F02292FAA2F21C
:1012A00001F0F001B2FA82F2D140074A515CC84025
:1012B0000649086006480068FFF7F4FE0020BEE714
:1012C000003C0240083802406E3A0008300000201E
:1012D0002800002008480949006809684FF4E052D6
:1012E00092FAA2F201F4E051B2FA82F2D140044A39
:1012F000515CC840704700003000002008380240B0
:101300007E3A000808480949006809684FF46042BD
:1013100092FAA2F201F46041B2FA82F2D140044A98
:10132000515CC8407047000030000020083802407F
:101330007E3A0008154810B5006810F00C021448F9
:1013400013D01449042A0FD0082A0ED10F4C241FA1
:101350002268236802F03F025B0207D52068C0F3D1
:101360008810A0FB010106E0084610BD2168C1F30A
:101370008811A1FB00010023FEF772FF2168C1F371
:101380000141491C4900B0FBF1F010BD0838024092
:101390000024F40040787D012DE9F84F04007BD053
:1013A000DFF828B32078ABF10406C007A6F10405E6
:1013B00036D0DBF800105846C1F38101012907D06F
:1013C0000068C0F38100022809D13068400206D5C8
:1013D0002868800324D560680028E0D020E0BB495D
:1013E0002079891F0870606868B1FFF733FE0746EF
:1013F00005E000BFFFF72EFEC01B642876D82868E2
:101400008003F7D50CE0FFF725FE074605E000BF97
:10141000FFF720FEC01B6428F0D828688003F7D4AB
:101420002078DFF8AC8280074FF0000944D5DBF864
:101430000010584611F00C0F4FF0F80A07D0006862
:10144000C0F38100022809D13068400206D4286820
:10145000800715D5E06801281ED111E0E068E0B1F1
:101460000120C8F80000FFF7F5FD074605E000BFC2
:10147000FFF7F0FDC01B0228C0D828688007F7D509
:1014800028689AFAAAF22169B2FA82F220F0F800EA
:101490009140084328600FE013E1C8F80090FFF77F
:1014A000D9FD074605E000BFFFF7D4FDC01B0228A9
:1014B0001CD828688007F7D42078000727D5DFF8E4
:1014C0000CA2844861690AF16C0A81B101210160B2
:1014D000FFF7C0FD074604E0FFF7BCFDC01B022874
:1014E00004D8DAF800008007F6D510E082E0C0F8F2
:1014F0000090FFF7AFFD074605E000BFFFF7AAFD2C
:10150000C01B022876D8DAF800008007F6D42078CD
:1015100040075FD5DFF8B4A100270AF1380ADAF8EE
:101520000000C0000BD4DAF8001041F08051CAF876
:101530000010DAF80000012700F0805000906648A3
:10154000016841F4807101600168C90512D4016825
:1015500041F480710160FFF77DFD009006E000BF5F
:10156000FFF778FD0099401A02287ED85A48006893
:10157000C005F5D55549207A68310870A06888B152
:10158000FFF768FD009007E0FFF764FD0099411A3E
:1015900041F28830814268D84C4868300068800742
:1015A000F2D510E0FFF756FD009007E0FFF752FD7F
:1015B0000099411A41F28830814256D84348683038
:1015C00000688007F2D42FB1DAF8001021F08051C2
:1015D000CAF80010A069B8B3DBF80010C1F38101AC
:1015E000022949D00228C8F8609004D0FFF732FDE4
:1015F00004463DE039E0FFF72DFD074605E000BF5A
:10160000FFF728FDC01B64282FD828688001F7D475
:10161000D4E907010843616A94F82C20890141EA62
:1016200002610843A16A2D4A490802EB01410843BF
:1016300031682B4A1140084330600120C8F860002F
:10164000FFF708FD044606E03DE000BFFFF702FD9E
:10165000001B642809D828688001F7D533E000BF53
:10166000FFF7F8FC001B642802D90320BDE8F88FBF
:1016700028688001F4D426E00128F7D03068E269B8
:1016800000F4800191421CD1226A00F03F01914296
:1016900017D147F6C071626A0140B1EB821F10D1C9
:1016A000A26A4FF0FF3300F4403103EB5202B1EB7A
:1016B000024F06D194F82C1000F07060B0EB016F6F
:1016C00001D00120D2E70020D0E700000838024016
:1016D00000004742800E4742007000400000FFFFBC
:1016E0000080BCF070B5040009D0606A002540B1EC
:1016F00025616561A56294F8510040B10CE00120BC
:1017000070BD6068B0F5827FF4D0E561F2E784F8DF
:101710005050204600F044F8022084F85100206820
:10172000016821F040010160A088218900F48270E5
:1017300001F404410843A18901F400610843217CBC
:1017400001F002010843217D01F001010843218BD2
:1017500001F400710843217F01F03801084394F837
:10176000201001F080010843218D01F4005108434D
:1017700021680860A069042101EA104094F824104F
:1017800001F010010843216848602068C16921F414
:101790000061C1616565012084F85100002070BDC1
:1017A000F0B587B0044614216846FEF737FE2E498F
:1017B00025682E4802220123032405268D4217D1D5
:1017C0002A4914310D6845F480550D60096801F40B
:1017D00080510591016841F001010160006869468E
:1017E00000F001000590E0208DE85D0020481AE03F
:1017F0001E49204F1031BD4219D10D6845F4804576
:101800000D60096801F480410591016841F0020111
:1018100001600068694600F0020005904FF4204026
:101820008DE85D001448FFF7CBFA07B0F0BD134E0A
:10183000B542FAD10D6845F400450D60096801F420
:1018400000410591016841F00401016000686946AA
:1018500000F0040005904FF4A0508DE81D00062014
:1018600004900748DFE700000030014030380240B4
:10187000000002400038004000040240003C0040EC
:10188000000802402DE9F84F984616468A4604465D
:10189000FFF7E0FB814694F8510001281ED1BAF110
:1018A000000F73D0002E71D094F85000012815D08D
:1018B000012784F85070032084F8510000256565E5
:1018C000C4F830A0A686E686A563A587E58765648B
:1018D0002564A068B0F5004F03D00CE00220BDE8FD
:1018E000F88F2068016821F04001016020680168DC
:1018F00041F48041016020680168490603D4016811
:1019000041F040010160E068B0F5006F606803D00D
:1019100048B3012E27D047E008B1012E1FD1206B1C
:1019200021680088C86006E020688168890709D5B9
:10193000216B0988C160206B801C2063E08E401EF3
:10194000E0860CE0FFF786FBA0EB0901414503D3DD
:10195000B8F1FF3F03D035E0B8F1000F32D0E08E90
:101960000028E1D123E0206B21680078087306E0AD
:101970002068816889070AD5216B09780173206B7B
:10198000401C2063E08E401EE0860DE02BE0FFF758
:1019900061FBA0EB0901414503D3B8F1FF3F03D040
:1019A00010E0B8F1000F0DD0E08E0028E0D14A46DB
:1019B0004146204600F04CFD08B120206065A0683B
:1019C00030B109E084F8517084F85050032086E764
:1019D0002068C1688068009084F8517004F8505FF6
:1019E00060680028F3D0012079E72DE9FF4F81B02E
:1019F0001D46934604464FF001090E9EFFF72AFB51
:101A0000074694F851006168012806D0B1F5827F3D
:101A10003CD1A168C9BB042838D10298002871D0F4
:101A2000BBF1000FFBD0002DF9D094F85000012835
:101A30002CD04FF0010A84F850A094F851000428EB
:101A400002D0052084F851004FF00008C4F85480FB
:101A5000C4F838B0E587A58702992163E586A58695
:101A6000C4F84080C4F8448020680168490603D463
:101A7000016841F040010160E068B0F5006F606806
:101A800008D0F0B3012D49D081E0FFE7022005B076
:101A9000BDE8F08F08B1012D39D1206B2168008895
:101AA000C860206B801C2063E08E401EE0862EE024
:101AB0002068816889070FD5E18E69B1B9F1010FFE
:101AC0000AD1216B0988C160206B801C2063E08EE5
:101AD000401EE0864FF0000920688168C9070CD0DD
:101AE000E18F51B1C068A16B0880A06B801CA0631E
:101AF000E08F401EE0874FF00109FFF7ABFAC01BF3
:101B000001E00BE067E0B04201D3701C50D1E08EE1
:101B10000028CDD1E08F0028CAD13EE0206B21689B
:101B200000780873206B401C2063E08E401EE08626
:101B30002DE02068816889070FD5E18E69B1B9F180
:101B4000010F0AD1216B09780173206B401C2063BF
:101B5000E08E401EE0864FF0000920688168C907CA
:101B60000CD0E18F51B1C068A16B0870A06B401C14
:101B7000A063E08F401EE0874FF00109FFF76AFA8B
:101B8000C01BB04202D3701C01D011E086B1E08EC0
:101B90000028CED1E08F0028CBD13A4631462046EE
:101BA00000F056FC50B12020606584F8508012E0AF
:101BB00084F851A084F85080032068E7A06818B921
:101BC0002068C1688068009084F851A084F8508033
:101BD000606D0028F1D0012059E710B5401EB0F12A
:101BE000807F01D3012010BD4FF0E02460610F2100
:101BF000601700F042FF0020A06107202061002054
:101C000010BD704770470000F8B5016804460868C9
:101C1000CA684B6910F00F0F4FF0000559D003F060
:101C2000010602F49077374365D0C10705D0D1058E
:101C300003D5616C41F001016164410705D5D90705
:101C400003D0616C41F002016164810705D5D907B9
:101C500003D0616C41F004016164010707D502F013
:101C60002001314303D0616C41F008016164616C73
:101C700000293AD0800604D5900602D5204600F00F
:101C80006FFD20684069616CC0F38010090700D4C3
:101C900060B3204600F02FFD20684069400621D542
:101CA0002068143050E8001F21F0400140E8001285
:101CB000002AF5D1E06BA8B16E490165E06BFEF733
:101CC000FAFE002811D0E06B016D01B0BDE8F040D4
:101CD000084783060FD593060DD52046BDE8F8408A
:101CE00000F03EBD2046FFF78DFFF8BD2046FFF710
:101CF00089FF6564F8BD266B2023012E7DD1C606C1
:101D00007BD5D60679D508684868009048694FF0B9
:101D10000206400641D5E16B086840680004000CEB
:101D2000E8D0A28D8242E5D9E085C869B0F5807F10
:101D30002DD020680C3050E8001F21F4807140E85D
:101D40000012002AF5D12068143050E8001F21F05D
:101D5000010140E80012002AF5D12068143050E853
:101D6000001F21F0400140E80012002AF5D184F85C
:101D70004230256320680C3050E8001F21F010012C
:101D800040E80012002AF5D1E06BFEF74BFE6663D7
:101D9000A08DE18D401A81B22AE0A08DE18D401A1C
:101DA00081B2E08D0028A5D00029A3D022680C3292
:101DB00052E8000F20F4907042E80007002FF5D1A0
:101DC0002068143050E8002F22F0010240E800277C
:101DD000002FF5D184F84230256320680C3050E89C
:101DE000002F22F0100240E80023002BF5D166639B
:101DF0002046FFF706FFF8BDFFE705062BD51506C1
:101E000029D594F841002128F5D1A068B0F5805F6C
:101E100001D12069B0B1206A411C2162216800789B
:101E20004860E08C401E0004000CE084E3D1206890
:101E3000C16821F08001C1602068C16841F04001A3
:101E4000C160D8E7206A0088C0F308004860206AB3
:101E5000801C2062E5E74006CDD55006CBD5CA6888
:101E6000204622F04002CA6084F8413000F016F9A2
:101E7000C1E70000AD25000870B5040004D094F857
:101E80004100002510B106E0012070BD84F84050EB
:101E9000204600F023F8242084F841002068C1681F
:101EA00021F40051C160204600F0BCFC20680169AB
:101EB00021F4904101612068416921F02A014161CA
:101EC0002068C16841F40051C1606564202084F835
:101ED000410084F842006563002070BD2DE9F043A5
:101EE00087B0064614216846FEF798FA30493068F4
:101EF00088425AD12F480025016841F01001016045
:101F0000006800F0100005902A481438016841F07C
:101F1000010101600068694600F0010005904FF47E
:101F2000C0600090022001900120029003200390E5
:101F3000072004902048FEF743FF214C1F484FF034
:101F40000067E4E8020740204FF48068A4E821011C
:101F50004FF4003944F814591948A561C4E90759E8
:101F60006562FEF78BFE08B1FEF781FBB463A663E2
:101F70001248144C78382060C4E90175C4E903584C
:101F80006561A561C4E9075920466562FEF776FEE2
:101F900008B1FEF76CFBF463002211462520A6630E
:101FA000FFF7C8F82520FFF7B7F807B0BDE8F083C2
:101FB000001001404438024000000240B864024072
:101FC000C03B0120203C012090F84230202B01D062
:101FD0000220704721B11AB10023036300F0B4BCA2
:101FE0000120704710B50068094988420FD109499E
:101FF0000D22A1F10D00FEF7AAF9074901200D22DB
:102000000870BDE8104003490448FFF7DDBF10BD6C
:1020100000100140BDBC002019000020783B0120C9
:102020007047000070B5044690F84100202801D0A8
:10203000022070BD49B342B32162A284E284002031
:102040006064212384F84130A56B114BEB63A56BD1
:10205000104B2B64A56B104BEB64A36B18652568C4
:1020600013462A1DA06BFEF773FE21686FF0400037
:1020700008602068143050E8001F41F0800140E8FB
:102080000012002AF5D1002070BD012070BD0000B3
:10209000AB260008ED260008BD25000810B5006835
:1020A0000649884208D106480078012801D100F08D
:1020B00099FC04490120C87010BD000000100140C7
:1020C00020000020190000207047FEE72DE9F843AA
:1020D0001D4600F0A7F9244C012D2080234841D053
:1020E00001220821FEF7B0FF002204212048FEF75C
:1020F000ABFF01221F4ED50229463046FEF7A4FF52
:10210000032000F0DBFDDFF870802F01002239464C
:102110004046FEF799FF032000F0D0FD002229463B
:102120003046FEF791FF032000F0C8FD2088ADF88F
:1021300000004FF0FF33012269461048FFF7A2FB71
:10214000032000F0BBFD012229463046FEF77CFF4C
:10215000032000F0B3FD39464046BDE8F8430122B4
:10216000FEF772BF0022BCE700000020000402401E
:10217000000C02400008024000000240203B012009
:10218000F8B51D4600F04EF9244C4FF48071012D36
:10219000208023483FD00122FEF756FF00224FF453
:1021A00000712048FEF750FF01221F4E950329467B
:1021B0003046FEF749FF032000F080FDAF100022FB
:1021C00039463046FEF740FF032000F077FD00223D
:1021D00029463046FEF738FF032000F06FFD2088C7
:1021E000ADF800004FF0FF33012269460F48FFF7BA
:1021F00049FB032000F062FD012229463046FEF72C
:1022000023FF032000F05AFD39463046BDE8F84070
:102210000122FEF719BF0022BEE7000000000020E7
:10222000000002400008024000040240C83A0120B9
:102230002DE9F04F87B014216846FEF7EFF83F48CC
:102240004FF0000B016841F004010160016801F0EA
:1022500004010591016841F001010160016801F08C
:1022600001010591016841F002010160016801F07E
:1022700002010591016841F0080101600068304FDA
:1022800000F008000590002240F203213846FEF7D6
:10229000DBFEDFF8B080002210214046FEF7D4FEBE
:1022A000DFF8A49045F20806012231464846FEF7C1
:1022B000CBFE01224FF401414046FEF7C5FE01224C
:1022C000D1023846FEF7C0FEDFF880A000220421CC
:1022D0005046FEF7B9FE012440F60320CDE9000484
:1022E000022569463846CDE90245FEF769FD48F208
:1022F0001010CDE9000469464046CDE90245FEF7DD
:102300005FFD1020CDE9000B694602943846FEF7C8
:1023100057FDCDE9006469464846CDE90245FEF720
:102320004FFD0420CDE9000469465046CDE9024541
:10233000FEF746FD07B0BDE8F08F000030380240E0
:10234000000802400000024000040240000C02406D
:102350000F4810B50D4901604FF4827141600021B2
:102360004FF40062C0E9021292100161C0E9051247
:102370001822C0E90721416281620A21C162FFF788
:10238000B1F9002801D072B6FEE710BD003001405F
:10239000703A0120104810B50E4901604FF4827167
:1023A000416000214FF40062C0E902120222C0E93C
:1023B0000421120282611822C0E907214162816270
:1023C0000A21C162FFF78EF9002801D072B6FEE73C
:1023D00010BD000000380040C83A0120104810B578
:1023E0000E4901604FF48271416000214FF4006298
:1023F000C0E902120222C0E90421120282611822FD
:10240000C0E90721416281620A21C162FFF76AF9CE
:10241000002801D072B6FEE710BD0000003C00406D
:10242000203B0120B1F5805F01D340F6FF718007AA
:10243000000C03F0010340EA433002F0010240EADD
:102440000230C1F30B0108437047FEE7FEE7704717
:10245000F8B515460E460B460092044601220221AD
:1024600000F010F840B93346002280212046009544
:1024700000F008F8002804D0606D40F0200060658E
:102480000320F8BD2DE9F8431E46914688460446D0
:10249000089DFEF7DFFD401B351AFEF7DBFD074602
:1024A00025480068C0F3CB30684338E0701C37D053
:1024B000FEF7D0FDC01BA84203D215B1009860B34F
:1024C0002CE02068416821F0E00141606068B0F5CF
:1024D000827F0BD1A068B0F5004F02D0B0F5806FBD
:1024E00004D12068016821F040010160A06AB0F5C4
:1024F000005F09D12068016821F400510160206863
:10250000016841F400510160012084F8510000206D
:1025100084F850000320BDE8F8830025401E009099
:102520002068816838EA010004D000214945BDD106
:102530000020F0E70121F9E7300000207047FEF7A6
:102540008FBD30B591B030216846FDF767FF14218B
:102550000CA8FDF763FF01200390022410200490D3
:102560000094002506940D20CDE90750C320CDE945
:10257000090404200B906846FEF70EFF08B172B6FE
:10258000FEE70CA90F2081E831004FF4A0500F9016
:102590004FF48050109003210CA8FEF7FDFD002899
:1025A00001D072B6FEE711B030BD704710B5806B38
:1025B0000021C185C184FFF725FB10BD70B5846B78
:1025C0002068406994F84110C0F3C010002521290B
:1025D00004D118B1E584204600F0B4F820684069C1
:1025E00094F84210C0F38010222904D118B1E58577
:1025F000204600F080F8606C40F0100060642046D7
:10260000FFF700FB70BD10B50146806B09680968D3
:102610004FF00002C9052ED4C28501680C3151E883
:10262000003F23F4807341E80034002CF5D10168A9
:10263000143151E8003F23F0010341E80034002C3D
:10264000F5D10168143151E8003F23F0400341E81F
:102650000034002CF5D1202180F84210016B0129B3
:1026600009D101680C3151E8003F23F0100341E823
:102670000034002CF5D14263016B012902D0FFF731
:10268000B1FC10BD818DFFF7BCFA10BD10B5806B99
:1026900001214163016B012902D0FFF7C1FC10BD8C
:1026A000818D4908FFF7ADFA10BD10B50146806B6A
:1026B00009680968C90516D40021C184016814316C
:1026C00051E8002F22F0800241E80023002BF5D1D1
:1026D00001680C3151E8002F42F0400241E800232C
:1026E000002BF5D110BDFFF7D9FC10BD10B5806BE4
:1026F000FFF7EAFC10BD01680C3151E8002F22F40D
:10270000907241E80023002BF5D10168143151E8A3
:10271000002F22F0010241E80023002BF5D1016BCC
:10272000012909D101680C3151E8002F22F0100273
:1027300041E80023002BF5D1202180F84210002130
:102740000163704701680C3151E8002F22F0C0028C
:1027500041E80023002BF5D1202180F8411070477B
:1027600008B590F84210222901D0022008BD8268E5
:102770004FF480539A4201D1016921B1816A9A4292
:102780001BD04AB10AE00268816A5268C2F30802AB
:102790000A80816A891C08E0026972B10268526885
:1027A00002F07F020A70816A491C8162C18D491E54
:1027B0000904090CC18503D01BE002685268F1E7E7
:1027C0000168CA6822F02002CA600168CA6822F45F
:1027D0008072CA6001684A6922F001024A612021C0
:1027E00080F8421000214163026B012A03D0FFF7F9
:1027F000F9FB002008BD016301680C3151E8002F8E
:1028000022F0100241E80023002BF5D101680A688C
:10281000D20602D50A6849680091818DFFF7F1F967
:10282000E7E700002DE9F041044600680169E2682D
:1028300021F44051114301612169A068E269084314
:102840006169114322680843D16849F20C639943D6
:102850000143D16020684169A26921F440711143AC
:10286000416137492068884202D03649884202D106
:10287000FEF748FD01E0FEF72DFD0246E369642006
:102880003221B3F5004F02EBC20303EB021362687F
:102890002BD09200B3FBF2F5B5FBF0F5B3FBF2F6EB
:1028A0006FF018077D4306EB8505B3FBF2F601EBED
:1028B0000515B5FBF0F5B6FBF0F605F0F00505EBF8
:1028C0000615B3FBF2F6B3FBF2F2B2FBF0F27A4379
:1028D00006EB820201EB0211B1FBF0F000F00F00F9
:1028E000216828448860BDE8F0815200B3FBF2F60D
:1028F000B6FBF0F6B3FBF2F7B3FBF2F56FF0180C92
:1029000006FB0CF607EB860601EBC606B5FBF0F5F9
:10291000B6FBF0F62D0106F0F80605EB4605B3FB15
:10292000F2F6B3FBF2F2B2FBF0F202FB0CF206EBB2
:10293000820201EBC201B1FBF0F000F00700CFE72B
:10294000001001400014014038B5816204468285C0
:10295000002013466064222284F84220E56B1B4A63
:10296000EA63E56B1A4A2A64E56B1A4AEA64E26B89
:1029700010650A462168E06B091DFEF7E9F9206839
:10298000016840680090206948B120680C3050E828
:10299000001F41F4807140E80012002AF5D1206840
:1029A000143050E8001F41F0010140E80012002AF5
:1029B000F5D12068143050E8001F41F0400140E894
:1029C0000012002AF5D1002038BD000007260008BB
:1029D0008D260008BD2500080148FFF715B9000045
:1029E000783B012010B50E4CA0786178884216D053
:1029F0000021E1700B4931F8102000EB800101EB60
:102A0000C0000849423901440748FFF70BFBA07892
:102A10000521401CB0FBF1F201FB1200A07010BDBB
:102A2000190000200CBD0020783B012070B5104C2F
:102A30000D460146607800EB800202EBC0000D4AB3
:102A400010442A46FDF783FC0A496078423121F898
:102A500010500521401CB0FBF1F201FB1200607028
:102A6000E078002803D0BDE87040FFF7BBBF70BD21
:102A700019000020CABC0020FEE70907090E002843
:102A800004DB00F1E02080F80014704700F00F0034
:102A900000F1E02080F8141D7047000001B51148D6
:102AA00011490068B0FBF1F1491E4FF0E020B1F18F
:102AB000807F08D241610D4AF02182F8141D002167
:102AC000816107210161002103E00269D203FCD585
:102AD000491C009A9142F8D3016921F0010101617A
:102AE00008BD00003000002040420F000FE000E071
:102AF00008B5FEF7BDFAFFF724FDFFF799FB2A485A
:102B00000024016841F4800101600068224600F45D
:102B10008000009021463A20FEF70CFB3A20FEF799
:102B2000FBFA002211464620FEF704FB4620FEF782
:102B3000F3FA1F481D4901601E49C0E901140C2128
:102B4000C460C0E904418461C461FFF795F908B12C
:102B500072B6FEE7FFF71EFCFFF7FAFBFFF73EFC3D
:102B60000D2215491248FFF72FFA144D144C4FF05F
:102B70000002287801280BD001212046FEF764FAD4
:102B8000012202212046FEF75FFA00F0F5F8EEE799
:102B900002212046FEF758FA012211462046FEF790
:102BA00053FA00F093F8E2E7303802400010014099
:102BB000783B012080841E00BDBC00202000002046
:102BC000000802400F4810B50146C278097A002378
:102BD000012A02D0022A0CD00FE0827AC479407A0E
:102BE000090401EB0020084902EB0462104448602C
:102BF00003E00648017006480370FDF7CDFC054868
:102C0000037010BDB0BC0020000000202000002098
:102C100018000020190000202DE9F0410F4D6868D0
:102C2000FFF73CFF0E4E0F4F002405F1080800BFD0
:102C3000FDF7ACFCC0F30B01698028F8141038884C
:102C40000A0A641C3254401C80B2E4B23154401C65
:102C50003880042CECD3BDE8F08100000000002097
:102C600026BD00201E00002030B41144029C1944EF
:102C700021440F4AC00000EB81000C4C1188FF2357
:102C80000B306354491C89B26354491C89B21180CA
:102C9000814208D1074A00211170214682B230BC1E
:102CA0000548FFF7BFB930BC7047000026BD0020C3
:102CB0001E0000201C000020783B012001B500E030
:102CC00000BF0098411E0091FAD208BDF8B521203E
:102CD0008DF800002648FF260178002915D0254DE3
:102CE000002101702878FF2808D16878FF280CD1CE
:102CF000A87858B1012808D1FFF764FF2878B042BE
:102D000003D0002801D0FDF747FCF8BD5FF00004B8
:102D100005EB4400052C0179C07801EB002081B25D
:102D20001BD2DFE804F003070D1115000023012278
:102D3000184602E0002301220220FFF7C7F90CE049
:102D4000002301221046F8E700230122184602E082
:102D5000002301220220FFF713FA641CE4B2052CC1
:102D6000D6D301216846FFF761FEFDF715FCC5E7E4
:102D700019000020B0BC00202DE9F84F564800781B
:102D800000286ED04FF0FF0947F647515348FDF732
:102D900023FB524EEE20524F307070700220DFF84D
:102DA0004481DFF844B1514D388000244FF6FF7A5A
:102DB00098F80000012854D04D480078012809D126
:102DC0009BF800204A4505D19BF80110494501D1E7
:102DD000FFF7F8FE474A04EB8401002002EB4101B3
:102DE00031F8102025F81020401C0528F8DB298830
:102DF0005046641C814236D16A88824233D1AA8807
:102E0000524530D1651EAAB23B493C48FDF778FDDA
:102E10008346AAB23A493B48FDF772FD8246AAB200
:102E200039493A48FDF76CFD8146AAB2384939481C
:102E3000FDF766FD80463888290A43463154401C18
:102E400080B24A463554401C388051465846FDF7FA
:102E500011FC4B4652465946601ECDF80080FFF7E4
:102E600003FFBDE8F88F002301221846FFF72EF973
:102E70006988002301220220FFF728F90122A9888E
:102E800000231046FFF722F90023E98801221846A3
:102E9000FFF776F92989002301220220FFF770F954
:102EA000FFF7BAFE1C48154A018822F81410154A8B
:102EB000418822F81410154A818822F81410154907
:102EC000C08821F814000120FFF7E8FDB4F57A6FFF
:102ED000FFF66EAFC5E700001C00002026BD0020F5
:102EE0001E00002020000020B0BC00203400002084
:102EF0001900002000000208C0BB00203E00002096
:102F0000FCBB00207E1F002038BC0020BE3E0020FD
:102F100074BC0020FE5D00200800002021F000426B
:102F2000A2F16052B2F5801F01F0004328BFD2F138
:102F30007F6C0BD95FEA001C43EAC20242EB50707F
:102F400018BF704728BF20F001007047B2F5801FFE
:102F5000BCBF184670474FEA410C1CF5001F02D257
:102F6000084600F0FCBC70B500F070F90000008964
:102F7000FFF7F6BF4FF00040A0F58000704700005B
:102F800010B591EA030F48BF83F0004300F1BA8106
:102F9000841A71EB030C05D2121943EB0C03001BCE
:102FA00061EB0C01DFF824E14FEA1154A4EB135C50
:102FB0001EEA430F18BF9EEA445F73D023EA0E0354
:102FC000DCF1200E21EA045143F4801332D322FABB
:102FD0000CFE10EB0E0023FA0CFE41EB0E01CCF1BF
:102FE000200E03FA0EFE10EB0E0051F10001B1F5B8
:102FF000801FCCF1200E32D201EB045112FA0EF2F6
:10300000BDE8104058BF7047401C38BF5FEA42021D
:1030100018BF7047002814BF20F0010041F10001E3
:103020004FEA410313F5001F38BF7047A1F1C041BB
:1030300000F05AB9012A43EB0302ACF1200CDCF199
:103040001F0E32BF4FF0000E23FA0CF310EB0300FB
:1030500041EB0451B4EB115FD0D0A1EB045101F569
:10306000801149085FEA300001EB04510ED350F1A2
:10307000000038BF12FA0EFE08D1BDE81040C9E7C3
:10308000401C38BF5FEA4202CAD1C3E7BDE8104026
:103090004FEA410313F5001F38BF7047A1F1C0414B
:1030A00000F022B99EEA445F08D011EA5E0FBDE845
:1030B000104004BF01F0004100207047BDE81040FF
:1030C00070B500F0C3F800BF64FBBE3E0000E0FF37
:1030D000B0FA80F310FA03F10AD0C3F11D0303F52F
:1030E00080634FEA41504FEA035202EBD12170470F
:1030F0004FF0000070470000DFF848C170B51CEACF
:10310000111E1EBF1CEA13159EEA0C0F95EA0C0F48
:1031100000F06F8081EA030423EA4C134EEAD47E68
:1031200021EA4C1141F4801143F48013AE44A1FB19
:10313000024CA0FB0365AEF17F7E361955EB0C0502
:10314000A1FB034C4CF10003A0FB021C16EB0C0688
:10315000654153F10003094218BF46F0010613F41C
:10316000007F0BD14FEA03314FEA0530340341EAC7
:10317000155140EA16506FF003020AE04FEAC321EE
:103180004FEAC520F40241EA555140EA56506FF02B
:10319000020202EB2E4201EB025585EACE710AD003
:1031A0005FEA440C18BF24F0004450F1000041F1E4
:1031B000000120EAD47040F2FE7C624500D270BD6E
:1031C000A84214BF4FF080444FF04044002E08BF87
:1031D0000024BEF1806FA8BFA1F1C041BDE87040DE
:1031E00080F282804FF0000001F1C04101F0004107
:1031F00070479EEA0C0F0CEA131518BF95EA0C0FE6
:1032000006D04FF0000081EA030E0EF0004170BDC1
:1032100000F01CF88900013E00F007B800F009B882
:103220004FEA430C5FEA5C5C08D081EA030100F0DE
:103230005BB84FEA410C5FEA5C5CF6D14FF00000EE
:10324000014970470000FF070000F87F0EF1020EF1
:103250002EF0030E5EF8046B364205D4012A43EBD0
:10326000030515F5001F12D8012841EB010C1CF5D0
:10327000001F0CD80ED14FEAD17C15F5001F0CEBC6
:103280004C0C0CF1020C08BF4CEBD37C04E04FF06B
:10329000080C01E04FEAD37C0CEB4C0526FA05F64E
:1032A00006F00706B6F1040C06D20EEB860CBDE85C
:1032B00070404CF0010C6047DFE80CF0090B020293
:1032C0004FF000414FF00000A1F5002170BD1946FC
:1032D0001046012851EB010418BFD4F5001484BF37
:1032E000002001F0004170BD0808A0F500114FEA70
:1032F0003101704710B591EA030F48BF83F00043D6
:103300003FF546AE841A71EB030C07D212198CF00C
:10331000004C43EB0C03001B61EB0C01DFF8A4E154
:103320004FEA1154A4EB135C1EEA430F18BF9EEA48
:10333000445F00F0B08023EA6E03524221EA045158
:10334000C3EB6E0338BF5B1EDCF1200E25D322FADF
:103350000CFE10EB0E0043FA0CFE41EB0E01CCF11B
:10336000200E03FA0EFE10EB0E0051F10001CCF11D
:10337000200E29D412FA0EF201EB0451BDE81040E0
:1033800058BF7047401C1CBFB2F1004F7047002867
:103390000CBF491C20F00100704712EB020E43EBFA
:1033A000030218BF4FF0010E4EEA4202ACF1200CAE
:1033B000DCF11E0E54D943FA0CFE10EB0E0051F155
:1033C000FF31CCF11E0ED5D50EF1010E12FA0EFE14
:1033D000404141EB010101EB445C5FEA5C5C10D9C8
:1033E00010EBDE7001EB045138BFBEF1004FBDE8B9
:1033F000104018BF704700280CBF491C20F0010086
:10340000704730D24FEAD42C11F5001124F4006437
:103410001BD0B1FA81F20B3AA41AA41ED2F12003F8
:10342000914030FA03F31943904001EBCC71002C2A
:1034300001EB0451BDE81040A8BF704701F1C04145
:103440004FF0000001F000417047B0FA80F310FA2D
:1034500003F100D110BDE41A173C4805C90AE4E79E
:1034600001EB045110BD491001EB0451BDE81040BF
:103470004FEA300002E04FF0000170474A0008BFF9
:103480000042F8D0B2F5001F28BF704701F000419C
:103490004FF0000070479EEA445F07D011EA5E0FCC
:1034A000BDE8104004BF002100207047BDE8104077
:1034B00070B5FFF7CBFE00BF40DFF63E83F0004162
:1034C000104670470000E0FF43004FEAD30C4FEA7C
:1034D0003C0C43401FBF40070CF1605113F0FE4FFE
:1034E00070471CF0006F03D100200CF000417047C2
:1034F0000CF0004343EA507010B540EACC0000F0F5
:10350000E8F900BF000000924FEA0001FFF7ECBEAF
:103510004FF000414FF00000A1F50021704700007E
:1035200090EA010F48BF81F0004100F12E82421A5B
:103530003CBF801A89184FEAD0524FF07F4C1CEAEA
:10354000410FA2EBD15318BF9CEA026F00F03B8001
:103550004FF0004C4CEA00204CEA012121FA03FC18
:1035600010EB0C0C1ED202F1FF325FEA1C2040EB84
:10357000C25038BF70471CF07F0F4FEA400C18BF95
:10358000BCF17F4F38BF7047C3F12003994008BF9B
:1035900020F00100BCF17F4F38BF7047A0F1C04060
:1035A00000F0DDB94FEA3C00000A40EBC25028BFF2
:1035B0001CF0FF0F4FEA400CE6D018BFBCF17F4F64
:1035C00038BF7047EAE79CEA026F05D010EA5C0F4B
:1035D00008BF00F00040704710B500F07AF900BF56
:1035E00064FBBE3E4FF47F0C1CEAD0121EBF1CEAE7
:1035F000D11392EA0C0F93EA0C0F00F0858090EA49
:10360000010F48BF42F4807240F4000C41F4000006
:103610002CF07F4120F07F4000B58142A2EB0302F5
:103620000FF2081CACEB504EC0F100009EF800E019
:103630004FEA4E0E00FB0EFC38BF49004FEA2C1C2F
:1036400002F5FA020CFB0EF34FEACE1E4FEA112CE4
:103650004FEAC1210EEB635E42EB22420EFB0CFCF3
:103660004FEA1C5300FB03114FEA112C4FEA0131C2
:103670000EFB0CFC4FEADC4C00FB0C11C14228BFD6
:1036800009184CEB03335DF804EB10EB410143EBFD
:10369000C250B2F57C0F38BF704729D512F0F00F39
:1036A0001CBF00F1C04000F00040704700818283E1
:1036B0008485868788898B8C8D8E8F919293959641
:1036C00097999A9C9D9FA0A2A3A5A7A8AAACAEB0CB
:1036D000B2B3B5B7B9BCBEC0C2C5C7C9CCCED1D4D0
:1036E000D7D9DCDFE2E6E9ECF0F3F7FAFE00000000
:1036F0004FEA400C0CF1807CBCF17E4F28BF704734
:10370000B0F1C04000F02BB990EA010F0CEAD113E0
:1037100048BF42F48072624538BF634507D213F454
:103720007F0F16D080EA010000F00040704710B50E
:1037300000F0CFF8097EFC3E00F005B880EA0100F9
:1037400000F00040704780EA010000F0004000F007
:1037500006B912F47F0F04BF0248704780EA0100E7
:1037600000F0FDB80000C07F41000B0ED3F19E02B7
:1037700008D950F400034FEA032323FA02F048BFAC
:103780004042704710B500F0A4F800BF4992248071
:10379000002070476FF0004282EA2000704700006E
:1037A00010F0004148BF4042B0FA80F310FA03F233
:1037B000C3F19D030BD051EAC35101EB1220530614
:1037C00038BF704700F1010008BF20F001007047CA
:1037D0004FF47F0C1CEAD0121EBF1CEAD11392EAF0
:1037E0000C0F93EA0C0F00F0478090EA010F48BFDE
:1037F00042F480724FF0004C4CEA00204CEA012168
:1038000002EB0302A0FB0113A2F50002002918BF7E
:1038100043F001035B0028BF4FEA330342EB22422F
:103820005FEA132C4CEBC2502EBFBCEB436FB2F5DA
:103830007C0F70474FEA036CBCF1004F08BF20F0CB
:103840000100B2F57C0F38BF70470BD582F0FF0244
:1038500012F5803FC8BF704700F1C040D8BF00F0EC
:103860000040704700F5000C5FEA4C0C48BF704701
:10387000B0F1C04000F073B890EA010F0CEAD11328
:1038800048BF42F48072624538BF634504D280EA83
:10389000010000F00040704710B500F01AF800BFBA
:1038A0008900013E00F007B800F009B85FEA410C5A
:1038B0005FEA1C6C08D080EA010000F050B85FEAB3
:1038C000400C5FEA1C6CF6D14FF00040A0F5800080
:1038D00070470EF1020E2EF0030E5EF8044B2442E8
:1038E00004D44FEA4102B2F17F4F11D84FEA4003AE
:1038F000B3F17F4F0CD80ED14FEAD07CB2F17F4F9D
:103900000CEB4C0C0CF1020C08BF4CEBD17C04E02E
:103910004FF0080C01E04FEAD17C0CEB4C0324FA89
:1039200003F404F00704B4F1040C06D20EEB840C8B
:10393000BDE810404CF0010C6047DFE80CF00708D0
:1039400002024FF00040A0F5800010BD0846420082
:1039500018BFD2F1807288BF00F0004010BDFF2177
:1039600041EAD050C005704780F0004090EA010F56
:103970007FF5DDAD81F0004100F007B890EA010F5E
:1039800048BF81F000413FF5D2AD421A04D882F021
:103990000042A0EB020011444FEAD0524FF07F4C9E
:1039A0001CEA410FA2EBD15318BF9CEA026F4AD028
:1039B0004FF0004C4CEA00204CEA012121FA03FCB4
:1039C000B0EB0C0C0FD412F0FE0F36D05FEA4C00B7
:1039D0001DD5001240EBC25038BF70471CF03F0F9E
:1039E00018BF70470BE0A2F101025FEA1C2040EB18
:1039F000C25038BF70471CF07F0F18BF7047C3F12B
:103A00002003994014BF401E20F001007047800839
:103A10004FEA122308BF7047B0FA80FCA2EB0C02F9
:103A2000CCF1280C60FA0CF093EA122F04BF00EBE3
:103A3000C25070474FEAC3707047130A5FEADC1048
:103A400008BF7047F6E79CEA026F04D010EA5C0FEB
:103A500008BF0020704710B5FFF73BFF40DFF63E80
:103A600081F0004070470006101600061016000096
:103A7000000000000000010203040607080900001E
:103A80000000010203040000803E04080000002042
:103A900034000000C0010008B43E040834000020D7
:103AA000AC420100DC010008000000000000000042
:103AB0000000000000000000000000000000000006
:103AC00000000000000000000000000000000000F6
:103AD00000000000000000000000000000000000E6
:103AE00000000000000000000000000000000000D6
:020000040801F1
:020000040802F0
:10000000C409D0075B079606E504C409D007710B45
:10001000E6067005C409D007E704E6067005C409C2
:10002000D007A20169090000C409D0071604D20252
:100030004303C409D007B80523034303C409D00709
:10004000880F23034303C409D007B805B404FD0295
:10005000C409D0072C08B404FD02C409D007A201CA
:10006000B4049D07C409D007B805B4049D07C409AA
:10007000D0078A06B4049D07C409D0071604B40447
:10008000CA09C409D007CF09B4049D07C409D00721
:10009000A00AB4049D07C409D007A20105054303C3
:1000A000C409D007710BB9094303C409D007B805C7
:1000B00005054303C409D007880F55058903C40902
:1000C000D0075B07A5051404C409D007710B960679
:1000D0005A04C409D007160496069F04C409D00721
:1000E0005B0796069F04C409D007140D96069F046B
:1000F000C409D007B60EE6062B05C409D0070000D8
:10010000C3031601C409D007E704D2021601C409CB
:10011000D007E704D2025C01C409D0072C082303EE
:10012000D000C409D007FE0823035C01C409D0072E
:10013000CF0914041601C409D007A00AD2025C0139
:10014000C409D007CF0914042D02C409D007A00A9E
:100150001404E701C409D007430C14045C01C4096A
:10016000D0072C08B4045807C409D007140D140490
:100170002D02C409D00745036404A101C409D007B6
:10018000E7046404A101C409D0077302C3036C0B24
:10019000C409D007B80564047202C409D0075B071C
:1001A00064047202C409D007B60E05057202C409C0
:1001B000D0075B07B4045807C409D007CF09050569
:1001C0007202C409D007A20105057202C409D00752
:1001D000D10055057202C409D007B60E0505FD020F
:1001E000C409D0077302A505B802C409D0075B078C
:1001F0008C0C9D07C409D007A00A5505FD02C4094F
:10020000D007CF09A505FD02C409D007A00AF5054E
:10021000FD02C409D007E50DF5058903C409D0071F
:10022000A00AF5054303C409D0072C084606890334
:10023000C409D00716044606CE03C409D0078A06AF
:100240000A0AE307C409D007FE089606E307C409B3
:10025000D007FE0896061404C409D007140DE6065C
:100260002808C409D0078A06DC0C9F04C409D007FB
:100270005B075A0A2808C409D007FE08230312079F
:10028000C409D007730223031207C409D007E70487
:1002900023031207C409D007A20164041207C4098A
:1002A000D007B80564041207C409D007A00A1404D3
:1002B0008B00C409D007880F64041207C409D00753
:1002C000B60E4B0B8B00C409D0072C08B4041207E0
:1002D000C409D007710B7D0D8B00C409D007D10074
:1002E0006404D000C409D007E7046404D000C40942
:1002F000D007E50DB4045C01C409D007E7047D0D07
:100300000000C409D0075B07B4044500C409D00746
:10031000B8050505A101C409D007A00A5505260B9B
:10032000C409D007CF09B4041601C409D0075B077C
:1003300055058B00C409D007A00A55050000C40963
:10034000D007CF09F505E701C409D007E50DF5058C
:100350007202C409D0078A064606FD02C409D00706
:100360002C084606B802C409D0078A060A0A9D0767
:10037000C409D0075B070A0A9D07C409D0077302A6
:100380009606FD02C409D0078A0696064303C409EF
:10039000D007880F96068903C409D007FE08960681
:1003A0004303C409D007FE0896068903C409D00791
:1003B000A00A96068903C409D007710B9606890323
:1003C000C409D007140D96068903C409D007E704B1
:1003D00096068903C409D0075B07E6068903C409AA
:1003E000D0072C08E606CE03C409D0072C085A0A09
:1003F000E307C409D0071604DC0C1404C409D007B1
:100400007302AA0A6E08C409D007710B1909700596
:10041000C409D0075B072D0D7005C409D0072C084F
:100420002D0DB605C409D007FE0823038706C409AD
:10043000D007B805B9098706C409D0077302D202EC
:100440008706C409D007B60EC303CC06C409D0077B
:100450002C08D202CC06C409D0072C086404CC06B0
:10046000C409D007D1006404CC06C409D00716041F
:100470006404CC06C409D0075B076404CC06C40935
:10048000D007450355058509C409D007FE08550561
:100490008509C409D0075B07A5050000C409D0077A
:1004A000140D0A0A0000C409D007A2010A0A0000BC
:1004B000C409D007E50D0A0A4500C409D007B805EC
:1004C0000A0A0000C409D007880F6E0E4500C4094F
:1004D000D007FE080A0A0000C409D007430C4606EC
:1004E000D000C409D0075B07F505260BC409D00767
:1004F000140D46061601C409D0078A0646061601E1
:10050000C409D007E7049606D000C409D007880FB5
:1005100046065C01C409D007880F9606D000C409BE
:10052000D0075B0796061601C409D0075B0796063D
:10053000A101C409D007FE0896065C01C409D007D2
:10054000B80596065807C409D007CF0996062D02AC
:10055000C409D007710B9606E701C409D007710BD7
:1005600096067202C409D00745039606E701C4093E
:10057000D007140D96067202C409D0075B079606D1
:100580002D02C409D0075B0796067202C409D00782
:10059000E50DE6062D02C409D007FE089606720294
:1005A000C409D007880F7808B802C409D007FE082C
:1005B000E6062D02C409D007430CE606FD02C40975
:1005C000D007A201E606FD02C409D0072C08E60602
:1005D000B802C409D0075B07E606FD02C409D007CC
:1005E000FE085A0A9D07C409D0078A06C80889036D
:1005F000C409D007B805C808CE03C409D0072C0821
:10060000C8081404C409D007FE08C8081404C409A3
:10061000D0078A062D0DE504C409D007880F6909A3
:100620007005C409D007E704D2024106C409D00707
:100630005B0723034106C409D0072C0823034106A6
:10064000C409D007E50D1404830CC409D007FE08C3
:1006500014044106C409D007CF097D0D4106C40921
:10066000D007710B23034106C409D0074503640476
:100670004106C409D007880FC3038706C409D00701
:10068000710B64048706C409D007B805B404870653
:10069000C409D0077302B4043F09C409D007160483
:1006A000B4043F09C409D007450355053F09C409EF
:1006B000D0075B070A0ACC06C409D007710B4606AF
:1006C000CC06C409D007E7044606CC06C409D00707
:1006D000A00A46061207C409D007B60E96061207EE
:1006E000C409D007A00ADC0C0000C409D0078A06A0
:1006F000DC0CD000C409D0075B07DC0CD000C409B7
:10070000D007E704CD0D8B00C409D007B805CD0D87
:100710000000C409D007710B5A0A0000C409D007B1
:100720008A06E6065C01C409D0072C08E606160115
:10073000C409D007FE08E6061601C409D007A201C5
:100740005A0A4500C409D007CF09E606E701C409E3
:10075000D007B8055A0A8B00C409D007880F5A0A77
:100760008B00C409D007430CE6065C01C409D0071E
:10077000A201E606A101C409D0072C083707A10190
:10078000C409D0075B073707E701C409D007CF09C1
:100790003707A101C409D007A00A3707A101C4097E
:1007A000D007CF0937072D02C409D007430C3707FC
:1007B000A101C409D007140D3707A101C409D0074E
:1007C000140D3707E701C409D007E50D3707E70126
:1007D000C409D007E50D37072D02C409D0078A06E2
:1007E000C808FD02C409D0072C081909CE03C409A2
:1007F000D007CF091909CE03C409D00773022D0D04
:100800002808C409D007A00A19095A04C409D00746
:10081000000019095A04C409D007FE081E0E9F04DF
:10082000C409D007140D6909E504C409D0071604EA
:100830006909E504C409D007E50D69092B05C40958
:10084000D0075B077D0D2B05C409D0075B077D0D25
:100850007005C409D007E704D202B605C409D00761
:10086000B8052303B605C409D0071604D202FB0558
:10087000C409D0078A062303FB05C409D007E7048F
:10088000B909FB05C409D007FE081404FB05C40917
:10089000D007A00A2303FB05C409D0072C08640471
:1008A000530DC409D007A2016404F908C409D00794
:1008B0005B076404F908C409D007B8050505F90801
:1008C000C409D007710B6E0EFB05C409D0071604CE
:1008D0006E0E4106C409D007430CF5054106C40954
:1008E000D0078A0646068706C409D0075B07460676
:1008F0008706C409D0078A060A0A8706C409D007F2
:100900005B07E6068509C409D00773025A0A120775
:10091000C409D007B60E8707E701C409D007B60E91
:1009200087072D02C409D0075B0787072D02C4097A
:10093000D007CF0987072D02C409D007710B87079D
:100940002D02C409D007140D8707E701C409D00799
:10095000B8051909FD02C409D0078A061909FD0264
:10096000C409D0075B0719094303C409D007FE086F
:1009700019094303C409D0075B0719098903C4098E
:10098000D007B8050F0FE307C409D007880F0F0F72
:10099000E307C409D007710BD7078903C409D0073F
:1009A000450369096A0EC409D007430C6909140498
:1009B000C409D0075B077D0D9F04C409D0077302EB
:1009C00023032B05C409D007B805D2022B05C4099F
:1009D000D0077302D2027005C409D007E704D2021F
:1009E0007005C409D0078A0623037005C409D0071F
:1009F000E704D202B408C409D007CF092303700565
:100A0000C409D007E7046404B408C409D007880FF8
:100A1000C303B408C409D007880F64049B0AFFFF0E
:100A2000FFFFFFFF00000000FFFFFFFFFFFF0000D0
:100A30000000FFFFFFFFFFFF00000000FFFFFFFFC0
:100A4000FFFF00000000FFFFFFFFFFFF00000000AE
:100A5000FFFFFFFFFFFF00000000FFFFFFFFFFFFA2
:100A600000000000FFFFFFFFFFFF00000000FFFF8E
:100A7000FFFFFFFF00000000FFFFFFFFFFFF000080
:100A80000000FFFFFFFFFFFF00000000FFFFFFFF70
:100A9000FFFF00000000FFFFFFFFFFFF000000005E
:100AA000FFFFFFFFFFFF00000000FFFFFFFFFFFF52
:100AB00000000000FFFFFFFFFFFF00000000FFFF3E
:100AC000FFFFFFFF00000000FFFFFFFFFFFF000030
:100AD0000000FFFFFFFFFFFF00000000FFFFFFFF20
:100AE000FFFF00000000FFFFFFFFFFFF000000000E
:100AF000FFFFFFFFFFFF00000000FFFFFFFFFFFF02
:100B000000000000FFFFFFFFFFFF00000000FFFFED
:100B1000FFFFFFFF00000000FFFFFFFFFFFF0000DF
:100B20000000FFFFFFFFFFFF00000000FFFFFFFFCF
:100B3000FFFF00000000FFFFFFFFFFFF00000000BD
:100B4000FFFFFFFFFFFF00000000FFFFFFFFFFFFB1
:100B500000000000FFFFFFFFFFFF00000000FFFF9D
:100B6000FFFFFFFF00000000FFFFFFFFFFFF00008F
:100B70000000FFFFFFFFFFFF00000000FFFFFFFF7F
:100B8000FFFF00000000FFFFFFFFFFFF000000006D
:100B9000FFFFFFFFFFFF00000000FFFFFFFFFFFF61
:100BA00000000000FFFFFFFFFFFF00000000FFFF4D
:100BB000FFFFFFFF00000000FFFFFFFFFFFF00003F
:100BC0000000FFFFFFFFFFFF00000000FFFFFFFF2F
:100BD000FFFF00000000FFFFFFFFFFFF000000001D
:100BE000FFFFFFFFFFFF00000000FFFFFFFFFFFF11
:100BF00000000000FFFFFFFFFFFF00000000FFFFFD
:100C0000FFFFFFFF00000000FFFFFFFFFFFF0000EE
:100C10000000FFFFFFFFFFFF00000000FFFFFFFFDE
:100C2000FFFF00000000FFFFFFFFFFFF00000000CC
:100C3000FFFFFFFFFFFF00000000FFFFFFFFFFFFC0
:100C400000000000FFFFFFFFFFFF00000000FFFFAC
:100C5000FFFFFFFF00000000FFFFFFFFFFFF00009E
:100C60000000FFFFFFFFFFFF00000000FFFFFFFF8E
:100C7000FFFF00000000FFFFFFFFFFFF000000007C
:100C8000FFFFFFFFFFFF00000000FFFFFFFFFFFF70
:100C900000000000FFFFFFFFFFFF00000000FFFF5C
:100CA000FFFFFFFF00000000FFFFFFFFFFFF00004E
:100CB0000000FFFFFFFFFFFF00000000FFFFFFFF3E
:100CC000FFFF00000000FFFFFFFFFFFF000000002C
:100CD000FFFFFFFFFFFF00000000FFFFFFFFFFFF20
:100CE00000000000FFFFFFFFFFFF00000000FFFF0C
:100CF000FFFFFFFF00000000FFFFFFFFFFFF0000FE
:100D00000000FFFFFFFFFFFF00000000FFFFFFFFED
:100D1000FFFF00000000FFFFFFFFFFFF00000000DB
:100D2000FFFFFFFFFFFF00000000FFFFFFFFFFFFCF
:100D300000000000FFFFFFFFFFFF00000000FFFFBB
:100D4000FFFFFFFF00000000FFFFFFFFFFFF0000AD
:100D50000000FFFFFFFFFFFF00000000FFFFFFFF9D
:100D6000FFFF00000000FFFFFFFFFFFF000000008B
:100D7000FFFFFFFFFFFF00000000FFFFFFFFFFFF7F
:100D800000000000FFFFFFFFFFFF00000000FFFF6B
:100D9000FFFFFFFF00000000FFFFFFFFFFFF00005D
:100DA0000000FFFFFFFFFFFF00000000FFFFFFFF4D
:100DB000FFFF00000000FFFFFFFFFFFF000000003B
:100DC000FFFFFFFFFFFF00000000FFFFFFFFFFFF2F
:100DD00000000000FFFFFFFFFFFF00000000FFFF1B
:100DE000FFFFFFFF00000000FFFFFFFFFFFF00000D
:100DF0000000FFFFFFFFFFFF00000000FFFFFFFFFD
:100E0000FFFF00000000FFFFFFFFFFFF00000000EA
:100E1000FFFFFFFFFFFF00000000FFFFFFFFFFFFDE
:100E200000000000FFFFFFFFFFFF00000000FFFFCA
:100E3000FFFFFFFF00000000FFFFFFFFFFFF0000BC
:100E40000000FFFFFFFFFFFF00000000FFFFFFFFAC
:100E5000FFFF00000000FFFFFFFFFFFF000000009A
:100E6000FFFFFFFFFFFF00000000FFFFFFFFFFFF8E
:100E700000000000FFFFFFFFFFFF00000000FFFF7A
:100E8000FFFFFFFF00000000FFFFFFFFFFFF00006C
:100E90000000FFFFFFFFFFFF00000000FFFFFFFF5C
:100EA000FFFF00000000FFFFFFFFFFFF000000004A
:100EB000FFFFFFFFFFFF00000000FFFFFFFFFFFF3E
:100EC00000000000FFFFFFFFFFFF00000000FFFF2A
:100ED000FFFFFFFF00000000FFFFFFFFFFFF00001C
:100EE0000000FFFFFFFFFFFF00000000FFFFFFFF0C
:100EF000FFFF00000000FFFFFFFFFFFF00000000FA
:100F0000FFFFFFFFFFFF00000000FFFFFFFFFFFFED
:100F100000000000FFFFFFFFFFFF00000000FFFFD9
:100F2000FFFFFFFF00000000FFFFFFFFFFFF0000CB
:100F30000000FFFFFFFFFFFF00000000FFFFFFFFBB
:100F4000FFFF00000000FFFFFFFFFFFF00000000A9
:100F5000FFFFFFFFFFFF00000000FFFFFFFFFFFF9D
:100F600000000000FFFFFFFFFFFF00000000FFFF89
:100F7000FFFFFFFF00000000FFFFFFFFFFFF00007B
:100F80000000FFFFFFFFFFFF00000000FFFFFFFF6B
:100F9000FFFF00000000FFFFFFFFFFFF0000000059
:100FA000FFFFFFFFFFFF00000000FFFFFFFFFFFF4D
:100FB00000000000FFFFFFFFFFFF00000000FFFF39
:100FC000FFFFFFFF00000000FFFFFFFFFFFF00002B
:100FD0000000FFFFFFFFFFFF00000000FFFFFFFF1B
:100FE000FFFF00000000FFFFFFFFFFFF0000000009
:100FF000FFFFFFFFFFFF00000000FFFFFFFFFFFFFD
:1010000000000000FFFFFFFFFFFF00000000FFFFE8
:10101000FFFFFFFF00000000FFFFFFFFFFFF0000DA
:101020000000FFFFFFFFFFFF00000000FFFFFFFFCA
:10103000FFFF00000000FFFFFFFFFFFF00000000B8
:10104000FFFFFFFFFFFF00000000FFFFFFFFFFFFAC
:1010500000000000FFFFFFFFFFFF00000000FFFF98
:10106000FFFFFFFF00000000FFFFFFFFFFFF00008A
:101070000000FFFFFFFFFFFF00000000FFFFFFFF7A
:10108000FFFF00000000FFFFFFFFFFFF0000000068
:10109000FFFFFFFFFFFF00000000FFFFFFFFFFFF5C
:1010A00000000000FFFFFFFFFFFF00000000FFFF48
:1010B000FFFFFFFF00000000FFFFFFFFFFFF00003A
:1010C0000000FFFFFFFFFFFF00000000FFFFFFFF2A
:1010D000FFFF00000000FFFFFFFFFFFF0000000018
:1010E000FFFFFFFFFFFF00000000FFFFFFFFFFFF0C
:1010F00000000000FFFFFFFFFFFF00000000FFFFF8
:10110000FFFFFFFF00000000FFFFFFFFFFFF0000E9
:101110000000FFFFFFFFFFFF00000000FFFFFFFFD9
:10112000FFFF00000000FFFFFFFFFFFF00000000C7
:10113000FFFFFFFFFFFF00000000FFFFFFFFFFFFBB
:1011400000000000FFFFFFFFFFFF00000000FFFFA7
:10115000FFFFFFFF00000000FFFFFFFFFFFF000099
:101160000000FFFFFFFFFFFF00000000FFFFFFFF89
:10117000FFFF00000000FFFFFFFFFFFF0000000077
:10118000FFFFFFFFFFFF00000000FFFFFFFFFFFF6B
:1011900000000000FFFFFFFFFFFF00000000FFFF57
:1011A000FFFFFFFF00000000FFFFFFFFFFFF000049
:1011B0000000FFFFFFFFFFFF00000000FFFFFFFF39
:1011C000FFFF00000000FFFFFFFFFFFF0000000027
:1011D000FFFFFFFFFFFF00000000FFFFFFFFFFFF1B
:1011E00000000000FFFFFFFFFFFF00000000FFFF07
:1011F000FFFFFFFF00000000FFFFFFFFFFFF0000F9
:101200000000FFFFFFFFFFFF00000000FFFFFFFFE8
:10121000FFFF00000000FFFFFFFFFFFF00000000D6
:10122000FFFFFFFFFFFF00000000FFFFFFFFFFFFCA
:1012300000000000FFFFFFFFFFFF00000000FFFFB6
:10124000FFFFFFFF00000000FFFFFFFFFFFF0000A8
:101250000000FFFFFFFFFFFF00000000FFFFFFFF98
:10126000FFFF00000000FFFFFFFFFFFF0000000086
:10127000FFFFFFFFFFFF00000000FFFFFFFFFFFF7A
:1012800000000000FFFFFFFFFFFF00000000FFFF66
:10129000FFFFFFFF00000000FFFFFFFFFFFF000058
:1012A0000000FFFFFFFFFFFF00000000FFFFFFFF48
:1012B000FFFF00000000FFFFFFFFFFFF0000000036
:1012C000FFFFFFFFFFFF00000000FFFFFFFFFFFF2A
:1012D00000000000FFFFFFFFFFFF00000000FFFF16
:1012E000FFFFFFFF00000000FFFFFFFFFFFF000008
:1012F0000000FFFFFFFFFFFF00000000FFFFFFFFF8
:10130000FFFF00000000FFFFFFFFFFFF00000000E5
:10131000FFFFFFFFFFFF00000000FFFFFFFFFFFFD9
:1013200000000000FFFFFFFFFFFF00000000FFFFC5
:10133000FFFFFFFF00000000FFFFFFFFFFFF0000B7
:101340000000FFFFFFFFFFFF00000000FFFFFFFFA7
:10135000FFFF00000000FFFFFFFFFFFF0000000095
:10136000FFFFFFFFFFFF00000000FFFFFFFFFFFF89
:1013700000000000FFFFFFFFFFFF00000000FFFF75
:10138000FFFFFFFF00000000FFFFFFFFFFFF000067
:101390000000FFFFFFFFFFFF00000000FFFFFFFF57
:1013A000FFFF00000000FFFFFFFFFFFF0000000045
:1013B000FFFFFFFFFFFF00000000FFFFFFFFFFFF39
:1013C00000000000FFFFFFFFFFFF00000000FFFF25
:1013D000FFFFFFFF00000000FFFFFFFFFFFF000017
:1013E0000000FFFFFFFFFFFF00000000FFFFFFFF07
:1013F000FFFF00000000FFFFFFFFFFFF00000000F5
:10140000FFFFFFFFFFFF00000000FFFFFFFFFFFFE8
:1014100000000000FFFFFFFFFFFF00000000FFFFD4
:10142000FFFFFFFF00000000FFFFFFFFFFFF0000C6
:101430000000FFFFFFFFFFFF00000000FFFFFFFFB6
:10144000FFFF00000000FFFFFFFFFFFF00000000A4
:10145000FFFFFFFFFFFF00000000FFFFFFFFFFFF98
:1014600000000000FFFFFFFFFFFF00000000FFFF84
:10147000FFFFFFFF00000000FFFFFFFFFFFF000076
:101480000000FFFFFFFFFFFF00000000FFFFFFFF66
:10149000FFFF00000000FFFFFFFFFFFF0000000054
:1014A000FFFFFFFFFFFF00000000FFFFFFFFFFFF48
:1014B00000000000FFFFFFFFFFFF00000000FFFF34
:1014C000FFFFFFFF00000000FFFFFFFFFFFF000026
:1014D0000000FFFFFFFFFFFF00000000FFFFFFFF16
:1014E000FFFF00000000FFFFFFFFFFFF0000000004
:1014F000FFFFFFFFFFFF00000000FFFFFFFFFFFFF8
:1015000000000000FFFFFFFFFFFF00000000FFFFE3
:10151000FFFFFFFF00000000FFFFFFFFFFFF0000D5
:101520000000FFFFFFFFFFFF00000000FFFFFFFFC5
:10153000FFFF00000000FFFFFFFFFFFF00000000B3
:10154000FFFFFFFFFFFF00000000FFFFFFFFFFFFA7
:1015500000000000FFFFFFFFFFFF00000000FFFF93
:10156000FFFFFFFF00000000FFFFFFFFFFFF000085
:101570000000FFFFFFFFFFFF00000000FFFFFFFF75
:10158000FFFF00000000FFFFFFFFFFFF0000000063
:10159000FFFFFFFFFFFF00000000FFFFFFFFFFFF57
:1015A00000000000FFFFFFFFFFFF00000000FFFF43
:1015B000FFFFFFFF00000000FFFFFFFFFFFF000035
:1015C0000000FFFFFFFFFFFF00000000FFFFFFFF25
:1015D000FFFF00000000FFFFFFFFFFFF0000000013
:1015E000FFFFFFFFFFFF00000000FFFFFFFFFFFF07
:1015F00000000000FFFFFFFFFFFF00000000FFFFF3
:10160000FFFFFFFF00000000FFFFFFFFFFFF0000E4
:101610000000FFFFFFFFFFFF00000000FFFFFFFFD4
:10162000FFFF00000000FFFFFFFFFFFF00000000C2
:10163000FFFFFFFFFFFF00000000FFFFFFFFFFFFB6
:1016400000000000FFFFFFFFFFFF00000000FFFFA2
:10165000FFFFFFFF00000000FFFFFFFFFFFF000094
:101660000000FFFFFFFFFFFF00000000FFFFFFFF84
:10167000FFFF00000000FFFFFFFFFFFF0000000072
:10168000FFFFFFFFFFFF00000000FFFFFFFFFFFF66
:1016900000000000FFFFFFFFFFFF00000000FFFF52
:1016A000FFFFFFFF00000000FFFFFFFFFFFF000044
:1016B0000000FFFFFFFFFFFF00000000FFFFFFFF34
:1016C000FFFF00000000FFFFFFFFFFFF0000000022
:1016D000FFFFFFFFFFFF00000000FFFFFFFFFFFF16
:1016E00000000000FFFFFFFFFFFF00000000FFFF02
:1016F000FFFFFFFF00000000FFFFFFFFFFFF0000F4
:101700000000FFFFFFFFFFFF00000000FFFFFFFFE3
:10171000FFFF00000000FFFFFFFFFFFF00000000D1
:10172000FFFFFFFFFFFF00000000FFFFFFFFFFFFC5
:1017300000000000FFFFFFFFFFFF00000000FFFFB1
:10174000FFFFFFFF00000000FFFFFFFFFFFF0000A3
:101750000000FFFFFFFFFFFF00000000FFFFFFFF93
:10176000FFFF00000000FFFFFFFFFFFF0000000081
:10177000FFFFFFFFFFFF00000000FFFFFFFFFFFF75
:1017800000000000FFFFFFFFFFFF00000000FFFF61
:10179000FFFFFFFF00000000FFFFFFFFFFFF000053
:1017A0000000FFFFFFFFFFFF00000000FFFFFFFF43
:1017B000FFFF00000000FFFFFFFFFFFF0000000031
:1017C000FFFFFFFFFFFF00000000FFFFFFFFFFFF25
:1017D00000000000FFFFFFFFFFFF00000000FFFF11
:1017E000FFFFFFFF00000000FFFFFFFFFFFF000003
:1017F0000000FFFFFFFFFFFF00000000FFFFFFFFF3
:10180000FFFF00000000FFFFFFFFFFFF00000000E0
:10181000FFFFFFFFFFFF00000000FFFFFFFFFFFFD4
:1018200000000000FFFFFFFFFFFF00000000FFFFC0
:10183000FFFFFFFF00000000FFFFFFFFFFFF0000B2
:101840000000FFFFFFFFFFFF00000000FFFFFFFFA2
:10185000FFFF00000000FFFFFFFFFFFF0000000090
:10186000FFFFFFFFFFFF00000000FFFFFFFFFFFF84
:1018700000000000FFFFFFFFFFFF00000000FFFF70
:10188000FFFFFFFF00000000FFFFFFFFFFFF000062
:101890000000FFFFFFFFFFFF00000000FFFFFFFF52
:1018A000FFFF00000000FFFFFFFFFFFF0000000040
:1018B000FFFFFFFFFFFF00000000FFFFFFFFFFFF34
:1018C00000000000FFFFFFFFFFFF00000000FFFF20
:1018D000FFFFFFFF00000000FFFFFFFFFFFF000012
:1018E0000000FFFFFFFFFFFF00000000FFFFFFFF02
:1018F000FFFF00000000FFFFFFFFFFFF00000000F0
:10190000FFFFFFFFFFFF00000000FFFFFFFFFFFFE3
:1019100000000000FFFFFFFFFFFF00000000FFFFCF
:10192000FFFFFFFF00000000FFFFFFFFFFFF0000C1
:101930000000FFFFFFFFFFFF00000000FFFFFFFFB1
:10194000FFFF00000000FFFFFFFFFFFF000000009F
:10195000FFFFFFFFFFFF00000000FFFFFFFFFFFF93
:1019600000000000FFFFFFFFFFFF00000000FFFF7F
:10197000FFFFFFFF00000000FFFFFFFFFFFF000071
:101980000000FFFFFFFFFFFF00000000FFFFFFFF61
:10199000FFFF00000000FFFFFFFFFFFF000000004F
:1019A000FFFFFFFFFFFF00000000FFFFFFFFFFFF43
:1019B00000000000FFFFFFFFFFFF00000000FFFF2F
:1019C000FFFFFFFF00000000FFFFFFFFFFFF000021
:1019D0000000FFFFFFFFFFFF00000000FFFFFFFF11
:1019E000FFFF00000000FFFFFFFFFFFF00000000FF
:1019F000FFFFFFFFFFFF00000000FFFFFFFFFFFFF3
:101A000000000000FFFFFFFFFFFF00000000FFFFDE
:101A1000FFFFFFFF00000000FFFFFFFFFFFF0000D0
:101A20000000FFFFFFFFFFFF00000000FFFFFFFFC0
:101A3000FFFF00000000FFFFFFFFFFFF00000000AE
:101A4000FFFFFFFFFFFF00000000FFFFFFFFFFFFA2
:101A500000000000FFFFFFFFFFFF00000000FFFF8E
:101A6000FFFFFFFF00000000FFFFFFFFFFFF000080
:101A70000000FFFFFFFFFFFF00000000FFFFFFFF70
:101A8000FFFF00000000FFFFFFFFFFFF000000005E
:101A9000FFFFFFFFFFFF00000000FFFFFFFFFFFF52
:101AA00000000000FFFFFFFFFFFF00000000FFFF3E
:101AB000FFFFFFFF00000000FFFFFFFFFFFF000030
:101AC0000000FFFFFFFFFFFF00000000FFFFFFFF20
:101AD000FFFF00000000FFFFFFFFFFFF000000000E
:101AE000FFFFFFFFFFFF00000000FFFFFFFFFFFF02
:101AF00000000000FFFFFFFFFFFF00000000FFFFEE
:101B0000FFFFFFFF00000000FFFFFFFFFFFF0000DF
:101B10000000FFFFFFFFFFFF00000000FFFFFFFFCF
:101B2000FFFF00000000FFFFFFFFFFFF00000000BD
:101B3000FFFFFFFFFFFF00000000FFFFFFFFFFFFB1
:101B400000000000FFFFFFFFFFFF00000000FFFF9D
:101B5000FFFFFFFF00000000FFFFFFFFFFFF00008F
:101B60000000FFFFFFFFFFFF00000000FFFFFFFF7F
:101B7000FFFF00000000FFFFFFFFFFFF000000006D
:101B8000FFFFFFFFFFFF00000000FFFFFFFFFFFF61
:101B900000000000FFFFFFFFFFFF00000000FFFF4D
:101BA000FFFFFFFF00000000FFFFFFFFFFFF00003F
:101BB0000000FFFFFFFFFFFF00000000FFFFFFFF2F
:101BC000FFFF00000000FFFFFFFFFFFF000000001D
:101BD000FFFFFFFFFFFF00000000FFFFFFFFFFFF11
:101BE00000000000FFFFFFFFFFFF00000000FFFFFD
:101BF000FFFFFFFF00000000FFFFFFFFFFFF0000EF
:101C00000000FFFFFFFFFFFF00000000FFFFFFFFDE
:101C1000FFFF00000000FFFFFFFFFFFF00000000CC
:101C2000FFFFFFFFFFFF00000000FFFFFFFFFFFFC0
:101C300000000000FFFFFFFFFFFF00000000FFFFAC
:101C4000FFFFFFFF00000000FFFFFFFFFFFF00009E
:101C50000000FFFFFFFFFFFF00000000FFFFFFFF8E
:101C6000FFFF00000000FFFFFFFFFFFF000000007C
:101C7000FFFFFFFFFFFF00000000FFFFFFFFFFFF70
:101C800000000000FFFFFFFFFFFF00000000FFFF5C
:101C9000FFFFFFFF00000000FFFFFFFFFFFF00004E
:101CA0000000FFFFFFFFFFFF00000000FFFFFFFF3E
:101CB000FFFF00000000FFFFFFFFFFFF000000002C
:101CC000FFFFFFFFFFFF00000000FFFFFFFFFFFF20
:101CD00000000000FFFFFFFFFFFF00000000FFFF0C
:101CE000FFFFFFFF00000000FFFFFFFFFFFF0000FE
:101CF0000000FFFFFFFFFFFF00000000FFFFFFFFEE
:101D0000FFFF00000000FFFFFFFFFFFF00000000DB
:101D1000FFFFFFFFFFFF00000000FFFFFFFFFFFFCF
:101D200000000000FFFFFFFFFFFF00000000FFFFBB
:101D3000FFFFFFFF00000000FFFFFFFFFFFF0000AD
:101D40000000FFFFFFFFFFFF00000000FFFFFFFF9D
:101D5000FFFF00000000FFFFFFFFFFFF000000008B
:101D6000FFFFFFFFFFFF00000000FFFFFFFFFFFF7F
:101D700000000000FFFFFFFFFFFF00000000FFFF6B
:101D8000FFFFFFFF00000000FFFFFFFFFFFF00005D
:101D90000000FFFFFFFFFFFF00000000FFFFFFFF4D
:101DA000FFFF00000000FFFFFFFFFFFF000000003B
:101DB000FFFFFFFFFFFF00000000FFFFFFFFFFFF2F
:101DC00000000000FFFFFFFFFFFF00000000FFFF1B
:101DD000FFFFFFFF00000000FFFFFFFFFFFF00000D
:101DE0000000FFFFFFFFFFFF00000000FFFFFFFFFD
:101DF000FFFF00000000FFFFFFFFFFFF00000000EB
:101E0000FFFFFFFFFFFF00000000FFFFFFFFFFFFDE
:101E100000000000FFFFFFFFFFFF00000000FFFFCA
:101E2000FFFFFFFF00000000FFFFFFFFFFFF0000BC
:101E30000000FFFFFFFFFFFF00000000FFFFFFFFAC
:101E4000FFFF00000000FFFFFFFFFFFF000000009A
:101E5000FFFFFFFFFFFF00000000FFFFFFFFFFFF8E
:101E600000000000FFFFFFFFFFFF00000000FFFF7A
:101E7000FFFFFFFF00000000FFFFFFFFFFFF00006C
:101E80000000FFFFFFFFFFFF00000000FFFFFFFF5C
:101E9000FFFF00000000FFFFFFFFFFFF000000004A
:101EA000FFFFFFFFFFFF00000000FFFFFFFFFFFF3E
:101EB00000000000FFFFFFFFFFFF00000000FFFF2A
:101EC000FFFFFFFF00000000FFFFFFFFFFFF00001C
:101ED0000000FFFFFFFFFFFF00000000FFFFFFFF0C
:101EE000FFFF00000000FFFFFFFFFFFF00000000FA
:101EF000FFFFFFFFFFFF00000000FFFFFFFFFFFFEE
:101F000000000000FFFFFFFFFFFF00000000FFFFD9
:101F1000FFFFFFFF00000000FFFFFFFFFFFF0000CB
:101F20000000FFFFFFFFFFFF00000000FFFFFFFFBB
:101F3000FFFF00000000FFFFFFFFFFFF00000000A9
:101F4000FFFFFFFFFFFF00000000FFFFFFFFFFFF9D
:101F500000000000FFFFFFFFFFFF00000000FFFF89
:101F6000FFFFFFFF00000000FFFFFFFFFFFF00007B
:101F70000000FFFFFFFFFFFF00000000FFFFFFFF6B
:101F8000FFFF00000000FFFFFFFFFFFF0000000059
:101F9000FFFFFFFFFFFF00000000FFFFFFFFFFFF4D
:101FA00000000000FFFFFFFFFFFF00000000FFFF39
:101FB000FFFFFFFF00000000FFFFFFFFFFFF00002B
:101FC0000000FFFFFFFFFFFF00000000FFFFFFFF1B
:101FD000FFFF00000000FFFFFFFFFFFF0000000009
